10001941MU STA FA      YILMAZ         1915168000000000000000
10002942MEHM ET        AYDIN          1923302000000000000000
10003943AHMET          KAVAKLI        1986242000000000000000
10004944OR HUN         KAS            2000204000000000000000
10015982A R D A        SAKE           1975296000000000000000
